:0400000002001132B7
:03000B0002006D83
:03006A0002000E83
:03000E000200CA23
:20006D00C0E0C082C083C007C0D075D000758A229000C2E0FFBF0600401B9000BEE02401ED
:20008D00F0A3E03400F0A3E03400F0A3E03400F09000C2E4F09000C2E02401F0D0D0D0078A
:2000AD00D083D082D0E032D2AFD2A99000007422F0E4A3F0758203120000D28C2290E10026
:2000CD001200007582011200009000007440F07582041200009000007440F0758205120074
:2000ED0000900000E4F090000B12000012122112126480FB9000007403F075820312000097
:20010D00900000E4F075820412000090000074F3F07403A3F0758256020000E58290000327
:20012D00F0E0F582020000020000E582900005F0E0FF9000007404F07400A3F0E4A3F09096
:20014D00000004F0900000E4F0A3F0A3F0900000F0A3F0A3F0A3F08F82120000AF82BF01C7
:20016D00047582012275820022E582900007F0900008E4F0900007E0FF9000007406F074FD
:20018D0000A3F0E4A3F090000004F09000007408F07400A3F0E4A3F090000004F0E4A3F04F
:2001AD00A3F0A3F08F82120000AF82BF010475820122900008E0F58222E58290000AF09048
:2001CD00000BE4F0A3F090000AE0FF9000007409F07400A3F0E4A3F090000004F090000098
:2001ED00740BF07400A3F0E4A3F09000007402F0E4A3F0A3F0A3F08F82120000AF82BF015E
:20020D00049000012290000BE0FEA3E08E82F58322AF83E58290000DF0EFA3F090000DE04F
:20022D00FEA3E0FD430550900000EDF0900001EEF09000007401F07400A3F0E4A3F09000BC
:20024D000004F09000007402F07400A3F0E4A3F090000004F0E4A3F0A3F0A3F08D821200E7
:20026D0000AF82BF01047582FF22900002E0F58222AF83E582900010F0EFA3F0900010E02E
:20028D00FEA3E0FD430550900000EDF0900001EEF090000FE0900002F09000007401F074F5
:2002AD0000A3F0E4A3F090000004F09000007402F07400A3F0E4A3F090000004F0E4A3F034
:2002CD00A3F0A3F08D82120000AF82BF010022E582900013F0E0F5DD900012E0F5DE85DF52
:2002ED008222120000900005120000900019749BF0900000E4F0A3F0A3F0900000F0A3F04F
:20030D0090000004F07582E1120000900000E4F0A3F0A3F0900000F0A3F090000004F075CC
:20032D0082E2020000AFF0AE83E58290001CF0EEA3F0EFA3F090001CE0FDA3E0FEA3E0FFE8
:20034D0090001BE0900000F0E4A3F08D828E838FF012000090001F7470F0900000741FF0C7
:20036D007400A3F0E4A3F090000004F0E4A3F0758207120000E58290001FF022AFF0AE83EF
:20038D00E582900022F0EEA3F0EFA3F0900021E06026900022E0FDA3E0FEA3E0FF900020EB
:2003AD00E0900000F0E4A3F090000004F08D828E838FF01200008024900022E0FDA3E0FE70
:2003CD00A3E0FF900020E0900000F0E4A3F090000004F08D828E838FF0120000900000E45E
:2003ED00F0A3F0A3F0900000F0A3F090000004F07582FF120000E582543060E090002574E7
:20040D0070F09000007425F07400A3F0E4A3F090000004F0E4A3F0758207120000AF82900C
:20042D000025EFF0EF30E41E900000E4F0A3F0A3F0900000F0A3F090000004F07582E1127F
:20044D0000007582002275820122E582900027F0E0540FC454F0FF900026E0FE53060F9078
:20046D000028EE4FF09000007428F07400A3F0E4A3F090000004F0E4A3F075820402000088
:20048D00E582900029F09000007429F07400A3F0E4A3F090000004F0E4A3F07582050200AB
:2004AD0000E58290002AF0900000742BF07400A3F0E4A3F090000004F0E4A3F07582061277
:2004CD00000090002BE0FF74D75FF090002AE0FFBF020B90002BE0FE74204EF0800CBF01BF
:2004ED000990002BE0FF74084FF0900000742BF07400A3F0E4A3F090000004F0E4A3F07584
:20050D008206020000E58290002CF0E0FFBF010890002D743FF0800590002DE4F090000084
:20052D00742DF07400A3F0E4A3F090000004F0E4A3F0758201020000E58290002EF0900005
:20054D0000742FF07400A3F0E4A3F090000004F0E4A3F075820012000090002FE0FF74F374
:20056D005FF090002EE0FFBF010B90002FE0FE74084EF0800CBF020990002FE0FF740C4F9D
:20058D00F0900000742FF07400A3F0E4A3F090000004F0E4A3F0758200020000E5829000D2
:2005AD0030F09000007431F07400A3F0E4A3F090000004F0E4A3F0758206120000900031A0
:2005CD00E0FF74F95FF0900030E0540325E0FF900031E04FF09000007431F07400A3F0E488
:2005ED00A3F090000004F0E4A3F0758206020000E582900032F0E0FF1F1FEFF0EF6033903A
:20060D000032E0FF530703900033EFF09000007433F07400A3F0E4A3F090000004F0E4A30D
:20062D00F0758203C007120000D0079000C574022FF022E582900039F0900038E090003B74
:20064D00F0900037E090003CF0900036E090003DF0900035E090003EF0900034E090003F01
:20066D00F0900039E0FF70299000C5E0FE7D009000AA743BF07400A3F0E4A3F09000ADEE0A
:20068D00F0EDA3F090001475F000C0071214C9D007BF0200502B740A2FFE9000C5E0FD7CB2
:2006AD0000900000743BF07400A3F0E4A3F0900000EDF0ECA3F08E82C007120000D0078054
:2006CD0022740A2FFE900000743BF07400A3F0E4A3F090000004F0E4A3F08E82C0071200AF
:2006ED0000D00790003A7420F074112FFE900000743AF07400A3F0E4A3F090000004F0E402
:20070D00A3F08E82C007120000900000743AF07400A3F0E4A3F090000004F0E4A3F07582B2
:20072D0002120000D0078FF005F07401800225E0D5F0FBFF90003AE04FF0900000743AF07B
:20074D007400A3F0E4A3F090000004F0E4A3F0758202020000E582900044F0900043E090AA
:20076D000046F0900042E0900047F0900041E0900048F0900040E0900049F0900044E09087
:20078D00004AF09000C5E0FF7E009000007446F07400A3F0E4A3F0900000EFF0EEA3F07543
:2007AD00820A1200009000C5E0FF7E009000007446F07400A3F0E4A3F0900000EFF0EEA324
:2007CD00F07582101200009000457420F09000007445F07400A3F0E4A3F090000004F0E48B
:2007ED00A3F0758211020000AFF0AE83E58290004BF0EEA3F0EFA3F0900000E4F0A3F0A3B0
:20080D00F0900000F0A3F090000004F07582FF120000AF8274405FFE604190004BE0FBA300
:20082D00E0FCA3E0FDEFC313FF5307078B828C838DF0EF12153D90004E7440F090000074B8
:20084D004EF07400A3F0E4A3F090000004F0E4A3F0758207C006120000D0068E8222900066
:20086D0000744FF07400A3F0E4A3F090000004F0E4A3F075820012000090004FE0FF740103
:20088D004FF0900000744FF07400A3F0E4A3F090000004F0E4A3F075820012000090004F68
:2008AD007470F0900000744FF07400A3F0E4A3F090000004F0E4A3F0758207120000D2E8D1
:2008CD00900004120000900014E060249000C5E0FF7E009000007414F07400A3F0E4A3F025
:2008ED00900000EFF0EEA3F075820A120000800675820012091D900000E4F0A3F0A3F09019
:20090D000000F0A3F090000004F07582E10200009000007450F07400A3F0E4A3F090000097
:20092D0004F0E4A3F07582021200009000007450F07400A3F0E4A3F090000004F0E4A3F077
:20094D00758200020000C2E8900019E0FF7E008F828E83120000900000E4F0A3F0A3F09093
:20096D000000F0A3F090000004F07582E1120000900019E0FF7E008F828E831200009000AF
:20098D00007451F07400A3F0E4A3F090000004F0E4A3F0758200120000900051E0FF74FEE1
:2009AD005FF09000007451F07400A3F0E4A3F090000004F0E4A3F075820012000090000084
:2009CD007451F07400A3F0E4A3F090000004F0E4A3F0758202120000900051E0FF74014F4D
:2009ED00F09000007451F07400A3F0E4A3F090000004F0E4A3F0758202020000AFF0AE8371
:200A0D00E582900058F0EEA3F0EFA3F0900000E4F0A3F0A3F0900000F0A3F090000004F066
:200A2D007582FF120000AF8290001AEFF0900058E0FCA3E0FDA3E0FE74205F8C828D838E83
:200A4D00F012153D900052E0FCA3E0FDA3E0FE74105F8C828D838EF012153D900055E0FCD2
:200A6D00A3E0FDA3E0FE5307408C828D838EF0EF02153D900000745BF07400A3F0E4A3F022
:200A8D0090000004F0E4A3F090000004F075826012000090005BE0F5822275821D120000D7
:200AAD00E58290001A4404F0900000741AF07400A3F0E4A3F090000004F0E4A3F075821D45
:200ACD0012000075821C120000E58290001A443FF0900000741AF07400A3F0E4A3F0900032
:200AED000004F0E4A3F075821C020000758209120000E5825401F58222758209120000E50B
:200B0D00825401F58222900000745CF07400A3F0E4A3F090000004F0E4A3F0758206120080
:200B2D000090005CE0FF74065FF0E0FFBF060890005D7403F0801BBF040890005D7402F05B
:200B4D008010BF020890005D7401F0800590005DE4F090005DE0F58222900000745EF0746B
:200B6D0000A3F0E4A3F090000004F0E4A3F075820612000090005EE0FF74285FF0E0FFBFFE
:200B8D00200890005F7402F08010BF080890005F7401F0800590005FE4F090005FE0F5828A
:200BAD0022900061E4F09000007460F07400A3F0E4A3F090000004F0E4A3F075820012006B
:200BCD0000900060E0FF740C5FF0E0FF30E312EF30E2089000617402F0800690006174011A
:200BED00F0900061E0F58222E582900083F07D627E007F00E0FC8C031C900083ECF0EB7077
:200C0D0003020CBB8D828E838FF012168EFB900084F0900085E4F0EB30E70690008574012C
:200C2D00F0900084E0FB30E609900085E0FB74024BF0900084E0FB30E509900085E0FB7497
:200C4D00044BF0900084E0FB30E409900085E0FB74084BF0900084E0FB30E309900085E095
:200C6D00FB74104BF0900084E0FB30E209900085E0FB74204BF0900084E0FB30E10990004B
:200C8D0085E0FB74404BF0900084E0FB30E009900085E0FB74804BF0900085E0FB8D828E44
:200CAD00838FF012153DA3AD82AE83020C03900083ECF022900082E4F01202EF75820012AA
:200CCD0005127582001204AE758200120545900082E09016B193F58212048D900026E4F062
:200CED007582001204577582031205A97582041205FD900034E4F0900035746BF0900036C8
:200D0D00747DF09000377491F09000387471F0758200120640900040746BF0900041747DDC
:200D2D00F09000427491F09000437471F0758200120762758201020000E582900086F0E08E
:200D4D00FFFD7E00ED24DBFBEE34FFFC30E7067B007C008008ED24DBFBEE34FFFCC374022F
:200D6D009B74808CF063F08095F050047C028015ED24DBFDEE34FFFE30E7047E008004EF88
:200D8D0024DBFE8E04900082ECF0EC9016B193F58202048D900082E02401F0E0FFBF030041
:200DAD004005900082E4F0900082E09016B193F58202048DAFF0AE83E582900088F0EEA345
:200DCD00F0EFA3F0900088E0FDA3E0FEA3E0FF900087E090008BF08D828E838FF0020DEDFF
:200DED00AFF0AE83E58290008CF0EEA3F0EFA3F09016D2E49324D0C454F0FF9016D3E493C6
:200E0D0024D04207900064EFF09016CFE49324D0C454F0FF9016D0E49324D04207900065AF
:200E2D00EFF09016CCE49324D0C454F0FF9016CDE49324D04207900066EFF09016D9E493F0
:200E4D0024D0C454F0FF9016DAE493FE24D04207900067EFF09016D5E493FF75F018C2D57D
:200E6D0030E704D2D5F40484E5F030D502F404C2D575F00D30E704B2D5F404A430D50AF409
:200E8D002401C5F0F43400C5F0FEAFF09016D6E493FD3395E0FCED2EFEEC3FFF9000B57461
:200EAD0018F0E4A3F08E828F83121578AE82AF839000B3EEF0EFA3F090000D121558AE8294
:200ECD00AF839016D7E493FD3395E0FCED2EFEEC3FFF9000B57418F0E4A3F08E828F83128F
:200EED001578AE82AF83EE24B4F582EF3416F583E493900068F09016DEE49324D0C454F0B2
:200F0D00FF9016DFE49324D04207900069EFF090008CE0FDA3E0FEA3E0FF90008BE0FC7B46
:200F2D0000C3EB9C502EC004EB246AF508E43400F5098D008E028F04EB28F8E43AFA8882AF
:200F4D008A838CF012168EF8850882850983F00BD00480CDEC24EA500475820022900062B8
:200F6D007442F074062C900063F074082CFFEC2462FBE43400FD7E0090008F74082BF0E4F4
:200F8D003DA3F0EEA3F08F82C004120FD2D004740B2CFCF582C00412118DD0048C82C0041F
:200FAD00120BF5120953D0047D627E007F00900020ECF0900021E4F08D828E838FF012032F
:200FCD008975820122E582900092F07D627E007F0090008FE0FAA3E0FBA3E0FC8A828B83FC
:200FED008CF074AA12153D74012AF50AE43BF50B8C0C850A82850B83850CF074AA12153D6A
:20100D0074022AF50DE43BF50E8C0F850D82850E83850FF074AA12153D900092E0F98900B0
:20102D0019900092E9F0E870030211878D828E838FF012168EF8A3AD82AE83900094E8F04E
:20104D009000937401F0C005C006C0078A828B838CF012168EF85300018A828B838CF01269
:20106D00168EC3138A828B838CF012153D850A82850B83850CF012168ED007D006D00530E2
:20108D00E01BC0008A828B838CF012168EF84300808A828B838CF0E812153DD000C000858A
:2010AD000A82850B83850CF012168EC313850A82850B83850CF012153D850D82850E8385BF
:2010CD000FF012168ED00030E021C000850A82850B83850CF012168EF8430080850A8285E1
:2010ED000B83850CF0E812153DD000C005C006C007850D82850E83850FF012168EC31385A7
:20110D000D82850E83850FF012153D900094E0FF530701E8B50708D007D006D0058040D019
:20112D0007D006D005850D82850E83850FF012168EF86300DA850D82850E83850FF0E812AF
:20114D00153D850A82850B83850CF012168EF8630060850A82850B83850CF0E812153D9099
:20116D000093E025E0F0900094E0C313F8F0900093E0600302105302102B900092E9F02213
:20118D00E582900095F07D627E007F00900082E09016AE93FC90009774404CF0900095E0F9
:2011AD00FC8C031C900095ECF0EB6062900098E4F090009604F0900097E0FB30E013900002
:2011CD009774886BF0900096E0FB900098E0FA4BF0900097E0C313F0900096E025E0FBF013
:2011ED00E070D3C0048D018E028F030DBD00010E89828A838BF012168EF8900098E06200C7
:20120D0089828A838BF0E812153DD0048093900095ECF022D2AF120CC112128C90009E7426
:20122D009BF07400A3F0E4A3F090009975F0001212979000877411F09000C675F000120DE9
:18124D00C19002BCE4F5F012000075AD01AFA474F85F4402F5A422223B
:2016AE00252627021A5000060004000100110008000003000000120210050900010732307B
:2016CE003A34343A3531004F63742020362032303137000000000000000005020105050919
:0C16EE00626F6A3307160918A40800FE9A
:20126500E58290009DF0E0FF7E50E59030E4047D0180027D00EDB507028002DEEDEE7003D5
:20128500F5822275820122900000E4F075820C020000AFF0AE83E5829000A1F0EEA3F0EF65
:2012A500A3F09000A4E4F09000A5F09000A6F09000A7F09000A8F09000A9F090000004F047
:2012C50075820C120000900012120000900000E4F075820C120000758200121265E5827070
:2012E5000475820122758201121265E582700475820122758200121265E582700475820102
:20130500227F008F067D00758201C007C006C005121265E582D005D006D0077004758202EC
:201325002290001EC007C006C00512000075820C120000E582D005D006D0076028EE24A438
:20134500FBE43400FC8B828C83E0FA7407C39DF5F005F07401800225E0D5F0FBF942028B4A
:20136500828C83EAF0758200C007C006C005121265E582D005D006D0077004758202220DA6
:20138500BD0800500302130C0FBF050050030213089000A4E070169000A5E070109000A667
:2013A500E0700A9000A7E07004758204227F00EF24A4F582E43400F583E0FE9000A9E0FDF5
:2013C5002EF00FBF040040E79000A9E0FF9000A8E0FEEFB506028004758203229000A5E062
:2013E50070539000A7E0704D90009EE0FDA3E0FEA3E0FF9000A6E075F00AA4FCABF08D8274
:201405008E838FF0EC12153DA3EB12153D9000A1E0FDA3E0FEA3E0FF9000A4E075F00AA4BD
:20142500FCABF08D828E838FF0EC12153DA3EB12153D0214C590009EE0FDA3E0FEA3E0FF46
:201445009000A4E0FB7C009000A5E07A004204EA42038D828E838FF0EC12153DA3EB121554
:201465003D9000A1E0FDA3E0FEA3E0FF9000A6E0FC53047F8C037C009000A7E0F97A00425A
:2014850004EA42038D828E838FF0EC12153DA3EB12153D9000A6E0FC30E7258D828E838F36
:2014A500F012168EFBA312168EFCC3E49BFBE49CFC8D828E838FF0EB12153DA3EC12153D97
:0414C500758200220A
:06004000E478FFF6D8FD94
:2014C900AFF0AE83E5829000AFF0EEA3F0EFA3F09000AFE0F50AA3E0F50BA3E0F50CAA0AC1
:2014E900AB0BAC0C9000AAE0F8A3E0F9A3E0FF9000ADE0F50DA3E0F50EAD0DAE0E150D74B4
:20150900FFB50D02150EED4E6020888289838FF012168EFEA3A882A9838A828B838CF0EE5B
:1415290012153DA3AA82AB8380CF850A82850B83850CF02237
:20001E007919E94400601B7A019016E178BE75C900E493F2A308B8000205C9D9F4DAF27568
:02003E00C9FFF8
:1B153D0020F71130F6138883A88220F509F6A8837583002280FEF280F5F022AD
:20155800AA83AB828BF09000B3E0A4F8A9F08AF0E0A429F98BF0A3E0A429F5838882222295
:20157800AF83E5829000B7F0EFA3F09000B7E0FEA3E0FF33E433FD6009C3E49EFBE49FFCEB
:2015980080048E038F049000B5E0FEA3E0FF30E709C3E49EF9E49FFA80048E018F029000D7
:2015B800B9E9F0EAA3F08B828C83C0051215E1AE82AF83D005ED600CC3E49EFCE49FFD8C3E
:0915D800828D83228E828F832212
:2015E100AF83E5829000BBF0EFA3F09000BDE4F09000BBE0FEA3E0FF7D009000B9E0FBA384
:20160100E0FC235401FA7037ECCB25E0CB33FC9000B9EBF0ECA3F09000B9E0FBA3E0FCC315
:20162100EE9BEF9C5011ECC313CB13CBFC9000B9EBF0ECA3F080080D9000BDEDF080BB90A0
:2016410000BDE0FF9000BBE0FDA3E0FE9000B9E0FBA3E0FCC3ED9BEE9C400B9000BBEDC386
:201661009BF0EE9CA3F09000B9E0FDA3E0C313CD13CDFE9000B9EDF0EEA3F08F061FEE70DE
:0D168100C39000BBE0FEA3E08E82F5832243
:200046007800E84400600A790075C900E4F309D8FC78BEE84400600C7901900000E4F0A3D2
:04006600D8FCD9FAEF
:0D00110075810F1216AAE582600302000E31
:1C168E0020F71430F6148883A88220F507E6A88375830022E280F7E49322E0226B
:0416AA007582002223
:00000001FF
